{
  "contractName": "GameContract",
  "abi": [
    {
      "anonymous": false,
      "inputs": [
        {
          "indexed": true,
          "internalType": "uint256",
          "name": "gameId",
          "type": "uint256"
        },
        {
          "indexed": true,
          "internalType": "address",
          "name": "adr",
          "type": "address"
        },
        {
          "indexed": false,
          "internalType": "uint256",
          "name": "coords",
          "type": "uint256"
        }
      ],
      "name": "CellColored",
      "type": "event"
    },
    {
      "anonymous": false,
      "inputs": [
        {
          "indexed": false,
          "internalType": "uint256",
          "name": "gameId",
          "type": "uint256"
        },
        {
          "indexed": true,
          "internalType": "address",
          "name": "creator",
          "type": "address"
        }
      ],
      "name": "GameCreated",
      "type": "event"
    },
    {
      "anonymous": false,
      "inputs": [
        {
          "indexed": true,
          "internalType": "uint256",
          "name": "gameId",
          "type": "uint256"
        },
        {
          "indexed": false,
          "internalType": "uint256",
          "name": "winingColor",
          "type": "uint256"
        }
      ],
      "name": "GameFinished",
      "type": "event"
    },
    {
      "anonymous": false,
      "inputs": [
        {
          "indexed": true,
          "internalType": "address",
          "name": "winner",
          "type": "address"
        },
        {
          "indexed": false,
          "internalType": "uint256",
          "name": "wining",
          "type": "uint256"
        }
      ],
      "name": "GotWining",
      "type": "event"
    },
    {
      "anonymous": false,
      "inputs": [
        {
          "indexed": true,
          "internalType": "uint256",
          "name": "prevGameId",
          "type": "uint256"
        },
        {
          "indexed": true,
          "internalType": "uint256",
          "name": "newGameId",
          "type": "uint256"
        }
      ],
      "name": "ResumeGame",
      "type": "event"
    },
    {
      "inputs": [],
      "name": "createGame",
      "outputs": [],
      "stateMutability": "nonpayable",
      "type": "function"
    },
    {
      "inputs": [
        {
          "internalType": "uint256",
          "name": "gameId",
          "type": "uint256"
        }
      ],
      "name": "resumeGame",
      "outputs": [],
      "stateMutability": "nonpayable",
      "type": "function"
    },
    {
      "inputs": [
        {
          "internalType": "uint256",
          "name": "gameId",
          "type": "uint256"
        },
        {
          "internalType": "uint256",
          "name": "x",
          "type": "uint256"
        },
        {
          "internalType": "uint256",
          "name": "y",
          "type": "uint256"
        },
        {
          "internalType": "uint8",
          "name": "color",
          "type": "uint8"
        }
      ],
      "name": "pickCell",
      "outputs": [],
      "stateMutability": "payable",
      "type": "function"
    },
    {
      "inputs": [
        {
          "internalType": "uint256",
          "name": "gameId",
          "type": "uint256"
        }
      ],
      "name": "getWinning",
      "outputs": [],
      "stateMutability": "nonpayable",
      "type": "function"
    },
    {
      "inputs": [
        {
          "internalType": "uint256",
          "name": "gameId",
          "type": "uint256"
        }
      ],
      "name": "checkTimeWin",
      "outputs": [],
      "stateMutability": "nonpayable",
      "type": "function"
    }
  ],
  "bytecode": "0x608060405234801561001057600080fd5b5061183d806100206000396000f3fe60806040526004361061004a5760003560e01c8063188847b01461004f5780633b39bf6e146100785780637255d729146100a1578063c7440407146100b8578063f1f05e2a146100e1575b600080fd5b34801561005b57600080fd5b5061007660048036038101906100719190610fe0565b6100fd565b005b34801561008457600080fd5b5061009f600480360381019061009a9190610fe0565b610296565b005b3480156100ad57600080fd5b506100b66106fd565b005b3480156100c457600080fd5b506100df60048036038101906100da9190610fe0565b6107b2565b005b6100fb60048036038101906100f69190611046565b610921565b005b8060008082815260200190815260200160002060640160019054906101000a900460ff1615610161576040517f08c379a00000000000000000000000000000000000000000000000000000000081526004016101589061110a565b60405180910390fd5b600080600154815260200190815260200160002060640160009054906101000a900460ff16156101c6576040517f08c379a00000000000000000000000000000000000000000000000000000000081526004016101bd9061119c565b60405180910390fd5b6000806000848152602001908152602001600020905060008060006001548152602001908152602001600020905060018160640160006101000a81548160ff0219169083151502179055508160640160029054906101000a900460ff161561023a5781606701548160670181905550610248565b816066015481606601819055505b600154847f672c85972d5fe44eccd1cfd2deb0fb133ef25b5f7c1acdabc1b97c4e1f589b0460405160405180910390a36001600081548092919061028b906111eb565b919050555050505050565b8060008082815260200190815260200160002060640160009054906101000a900460ff166102f9576040517f08c379a00000000000000000000000000000000000000000000000000000000081526004016102f090611280565b60405180910390fd5b8160008082815260200190815260200160002060640160019054906101000a900460ff161561035d576040517f08c379a00000000000000000000000000000000000000000000000000000000081526004016103549061110a565b60405180910390fd5b6000806000858152602001908152602001600020905080606b0160003373ffffffffffffffffffffffffffffffffffffffff1673ffffffffffffffffffffffffffffffffffffffff16815260200190815260200160002060009054906101000a900460ff1615610402576040517f08c379a00000000000000000000000000000000000000000000000000000000081526004016103f9906112ec565b60405180910390fd5b8060640160029054906101000a900460ff161561059a5760008160690160003373ffffffffffffffffffffffffffffffffffffffff1673ffffffffffffffffffffffffffffffffffffffff16815260200190815260200160002060008360640160039054906101000a900460ff1660ff16815260200190815260200160002054905060006064836066015483610498919061130c565b6104a29190611395565b9050600183606b0160003373ffffffffffffffffffffffffffffffffffffffff1673ffffffffffffffffffffffffffffffffffffffff16815260200190815260200160002060006101000a81548160ff0219169083151502179055503373ffffffffffffffffffffffffffffffffffffffff166108fc829081150290604051600060405180830381858888f19350505050158015610544573d6000803e3d6000fd5b503373ffffffffffffffffffffffffffffffffffffffff167f44b1cd691effbfc41c7759d8b63f0b90a71427f24adce5ad5c2fb925347b89ce8260405161058b91906113d5565b60405180910390a250506106f7565b8060640160049054906101000a900473ffffffffffffffffffffffffffffffffffffffff1673ffffffffffffffffffffffffffffffffffffffff163373ffffffffffffffffffffffffffffffffffffffff1614156106f657600081606701549050600182606b0160003373ffffffffffffffffffffffffffffffffffffffff1673ffffffffffffffffffffffffffffffffffffffff16815260200190815260200160002060006101000a81548160ff021916908315150217905550600082606701819055503373ffffffffffffffffffffffffffffffffffffffff166108fc829081150290604051600060405180830381858888f193505050501580156106a5573d6000803e3d6000fd5b503373ffffffffffffffffffffffffffffffffffffffff167f44b1cd691effbfc41c7759d8b63f0b90a71427f24adce5ad5c2fb925347b89ce826040516106ec91906113d5565b60405180910390a2505b5b50505050565b600080600154815260200190815260200160002060640160009054906101000a900460ff1615610762576040517f08c379a00000000000000000000000000000000000000000000000000000000081526004016107599061119c565b60405180910390fd5b60008060006001548152602001908152602001600020905060018160640160006101000a81548160ff021916908315150217905550600160008154809291906107aa906111eb565b919050555050565b8060008082815260200190815260200160002060640160009054906101000a900460ff16610815576040517f08c379a000000000000000000000000000000000000000000000000000000000815260040161080c90611280565b60405180910390fd5b8160008082815260200190815260200160002060640160019054906101000a900460ff16610878576040517f08c379a000000000000000000000000000000000000000000000000000000000815260040161086f9061143c565b60405180910390fd5b600080600085815260200190815260200160002090506102588160650154426108a1919061145c565b111561091b5760008160640160016101000a81548160ff02191690831515021790555060008160640160026101000a81548160ff021916908315150217905550837f71d8d234b4f01f0a78ddc2da18d2c7e947d77e97a25d5f07608f6f75bab4f027600060405161091291906114d5565b60405180910390a25b50505050565b8360008082815260200190815260200160002060640160009054906101000a900460ff16610984576040517f08c379a000000000000000000000000000000000000000000000000000000000815260040161097b90611280565b60405180910390fd5b8460008082815260200190815260200160002060640160019054906101000a900460ff166109e7576040517f08c379a00000000000000000000000000000000000000000000000000000000081526004016109de9061143c565b60405180910390fd5b6000806000888152602001908152602001600020905080606801543411610a43576040517f08c379a0000000000000000000000000000000000000000000000000000000008152600401610a3a9061153c565b60405180910390fd5b60008460ff16118015610a5a5750600a8460ff1611155b610a99576040517f08c379a0000000000000000000000000000000000000000000000000000000008152600401610a90906115a8565b60405180910390fd5b600a86108015610aa95750600a85105b610ae8576040517f08c379a0000000000000000000000000000000000000000000000000000000008152600401610adf90611614565b60405180910390fd5b8360ff168160000187600a8110610b0257610b01611634565b5b600a020186600a8110610b1857610b17611634565b5b0160000160009054906101000a900460ff1660ff161415610b6e576040517f08c379a0000000000000000000000000000000000000000000000000000000008152600401610b65906116af565b60405180910390fd5b610258816065015442610b81919061145c565b10610bc1576040517f08c379a0000000000000000000000000000000000000000000000000000000008152600401610bb89061171b565b60405180910390fd5b60008160680154905060008260000188600a8110610be257610be1611634565b5b600a020187600a8110610bf857610bf7611634565b5b0160000160009054906101000a900460ff1660ff16905060008360000189600a8110610c2757610c26611634565b5b600a020188600a8110610c3d57610c3c611634565b5b0160000160019054906101000a900473ffffffffffffffffffffffffffffffffffffffff16905086846000018a600a8110610c7b57610c7a611634565b5b600a020189600a8110610c9157610c90611634565b5b0160000160006101000a81548160ff021916908360ff1602179055508360690160008273ffffffffffffffffffffffffffffffffffffffff1673ffffffffffffffffffffffffffffffffffffffff16815260200190815260200160002060008381526020019081526020016000206000815480929190610d109061173b565b91905055508360690160003373ffffffffffffffffffffffffffffffffffffffff1673ffffffffffffffffffffffffffffffffffffffff16815260200190815260200160002060008860ff1681526020019081526020016000206000815480929190610d7b906111eb565b919050555083606a0160008381526020019081526020016000206000815480929190610da69061173b565b919050555083606a0160008860ff1681526020019081526020016000206000815480929190610dd4906111eb565b9190505550338460640160046101000a81548173ffffffffffffffffffffffffffffffffffffffff021916908373ffffffffffffffffffffffffffffffffffffffff160217905550606460036064610e2c9190611765565b8560680154610e3b919061130c565b610e459190611395565b8460680181905550606484606a0160008960ff168152602001908152602001600020541415610ee15760008460640160016101000a81548160ff02191690831515021790555060018460640160026101000a81548160ff021916908315150217905550897f71d8d234b4f01f0a78ddc2da18d2c7e947d77e97a25d5f07608f6f75bab4f02788604051610ed891906117ec565b60405180910390a25b3373ffffffffffffffffffffffffffffffffffffffff168a7f9de6ccea3a4a4ea2a23d6f8c430ae4e1238c43d64c16c95971193ed3bf2ae8048a8c600a610f28919061130c565b610f329190611765565b604051610f3f91906113d5565b60405180910390a33373ffffffffffffffffffffffffffffffffffffffff166108fc8434610f6d919061145c565b9081150290604051600060405180830381858888f19350505050158015610f98573d6000803e3d6000fd5b5050505050505050505050565b600080fd5b6000819050919050565b610fbd81610faa565b8114610fc857600080fd5b50565b600081359050610fda81610fb4565b92915050565b600060208284031215610ff657610ff5610fa5565b5b600061100484828501610fcb565b91505092915050565b600060ff82169050919050565b6110238161100d565b811461102e57600080fd5b50565b6000813590506110408161101a565b92915050565b600080600080608085870312156110605761105f610fa5565b5b600061106e87828801610fcb565b945050602061107f87828801610fcb565b935050604061109087828801610fcb565b92505060606110a187828801611031565b91505092959194509250565b600082825260208201905092915050565b7f47616d65206973207374696c6c20616374697665000000000000000000000000600082015250565b60006110f46014836110ad565b91506110ff826110be565b602082019050919050565b60006020820190508181036000830152611123816110e7565b9050919050565b7f47616d6520616c72656164792063726561746564284920646f6e74206b6e6f7760008201527f207768792e2e2e29000000000000000000000000000000000000000000000000602082015250565b60006111866028836110ad565b91506111918261112a565b604082019050919050565b600060208201905081810360008301526111b581611179565b9050919050565b7f4e487b7100000000000000000000000000000000000000000000000000000000600052601160045260246000fd5b60006111f682610faa565b91507fffffffffffffffffffffffffffffffffffffffffffffffffffffffffffffffff821415611229576112286111bc565b5b600182019050919050565b7f47616d65206973206e6f74206578697374000000000000000000000000000000600082015250565b600061126a6011836110ad565b915061127582611234565b602082019050919050565b600060208201905081810360008301526112998161125d565b9050919050565b7f596f7520616c726561647920676f7420796f75722077696e696e670000000000600082015250565b60006112d6601b836110ad565b91506112e1826112a0565b602082019050919050565b60006020820190508181036000830152611305816112c9565b9050919050565b600061131782610faa565b915061132283610faa565b9250817fffffffffffffffffffffffffffffffffffffffffffffffffffffffffffffffff048311821515161561135b5761135a6111bc565b5b828202905092915050565b7f4e487b7100000000000000000000000000000000000000000000000000000000600052601260045260246000fd5b60006113a082610faa565b91506113ab83610faa565b9250826113bb576113ba611366565b5b828204905092915050565b6113cf81610faa565b82525050565b60006020820190506113ea60008301846113c6565b92915050565b7f47616d65206973206e6f74206163746976650000000000000000000000000000600082015250565b60006114266012836110ad565b9150611431826113f0565b602082019050919050565b6000602082019050818103600083015261145581611419565b9050919050565b600061146782610faa565b915061147283610faa565b925082821015611485576114846111bc565b5b828203905092915050565b6000819050919050565b6000819050919050565b60006114bf6114ba6114b584611490565b61149a565b610faa565b9050919050565b6114cf816114a4565b82525050565b60006020820190506114ea60008301846114c6565b92915050565b7f5765206e656564206d6f726520676f6c64000000000000000000000000000000600082015250565b60006115266011836110ad565b9150611531826114f0565b602082019050919050565b6000602082019050818103600083015261155581611519565b9050919050565b7f596f752073686f756c64207069636b206176616c6961626c6520636f6c6f7200600082015250565b6000611592601f836110ad565b915061159d8261155c565b602082019050919050565b600060208201905081810360008301526115c181611585565b9050919050565b7f596f752073686f756c64207069636b2063656c6c2066726f6d206669656c6400600082015250565b60006115fe601f836110ad565b9150611609826115c8565b602082019050919050565b6000602082019050818103600083015261162d816115f1565b9050919050565b7f4e487b7100000000000000000000000000000000000000000000000000000000600052603260045260246000fd5b7f546869732063656c6c20697320616c7265616479207061696e74656400000000600082015250565b6000611699601c836110ad565b91506116a482611663565b602082019050919050565b600060208201905081810360008301526116c88161168c565b9050919050565b7f4c6173742070616974657220616c726561647920776f6e000000000000000000600082015250565b60006117056017836110ad565b9150611710826116cf565b602082019050919050565b60006020820190508181036000830152611734816116f8565b9050919050565b600061174682610faa565b9150600082141561175a576117596111bc565b5b600182039050919050565b600061177082610faa565b915061177b83610faa565b9250827fffffffffffffffffffffffffffffffffffffffffffffffffffffffffffffffff038211156117b0576117af6111bc565b5b828201905092915050565b60006117d66117d16117cc8461100d565b61149a565b610faa565b9050919050565b6117e6816117bb565b82525050565b600060208201905061180160008301846117dd565b9291505056fea26469706673582212206b755fead44970599c28f9ebe5e87bc2eee742c228160819480526107d8aa55964736f6c634300080a0033",
  "immutableReferences": {},
  "source": "pragma solidity ^0.8.0;\n\ncontract GameContract {\n\n    struct Cell {\n        uint8 color; \n        address lastUpdateBy;\n    }\n\n\n    // TODO   ,       memory     storage\n    struct Game {\n        Cell[10][10] cells; // Maybe mapping\n        bool isExist;\n        bool isActive; \n        bool colorWin;\n        uint8 winingColor; // ?? maybe uint better\n        address lastUpdateBy;\n        uint lastUpdated;\n        uint colorBank; \n        uint timeBank;\n        uint price;\n        mapping(address => mapping(uint => uint)) userColors;\n        mapping(uint => uint) colorsCount;\n        mapping(address => bool) gotWining; \n    }\n\n    uint constant FACTOR = 3;\n    uint constant TIMER = 10 minutes; // MIiner could cheat up to 900 seconds. Danger!\n\n    mapping(uint => Game) games;\n\n    uint lastGame;\n\n    event GameCreated(uint gameId, address indexed creator);\n    event CellColored(uint indexed gameId, address indexed adr, uint coords);\n    event GameFinished(uint indexed gameId, uint winingColor);\n    event GotWining(address indexed winner, uint wining);\n    event ResumeGame(uint indexed prevGameId, uint indexed newGameId);\n\n    modifier existingGame(uint gameId) {\n        require(games[gameId].isExist, \"Game is not exist\");\n        _;\n    }\n\n    modifier activeGame(uint gameId) {\n        require(games[gameId].isActive, \"Game is not active\");\n        _;\n    }\n\n    modifier inActiveGame(uint gameId) {\n        require(games[gameId].isActive, \"Game is not active\");\n        _;\n    }\n\n    modifier finishedGame(uint gameId) {\n        require(!games[gameId].isActive, \"Game is still active\");\n        _;\n    }\n\n    function createGame() external {\n        require(!games[lastGame].isExist, \"Game already created(I dont know why...)\");\n        Game storage newGame = games[lastGame];\n\n        newGame.isExist = true;\n\n        lastGame++;\n    }\n\n    function resumeGame(uint gameId) finishedGame(gameId) external {\n        require(!games[lastGame].isExist, \"Game already created(I dont know why...)\");\n\n        Game storage prevGame = games[gameId];\n        Game storage newGame = games[lastGame];\n\n        newGame.isExist = true;\n\n        if (prevGame.colorWin) {\n            newGame.timeBank = prevGame.timeBank;\n        } else {\n            newGame.colorBank = prevGame.colorBank;\n        }\n\n        emit ResumeGame(gameId, lastGame);\n\n        lastGame++;\n    }\n\n    function pickCell(uint gameId, uint x, uint y, uint8 color) external payable existingGame(gameId) activeGame(gameId) {\n        Game storage curGame = games[gameId];\n\n        require(msg.value > curGame.price, \"We need more gold\");\n        require(color > 0 && color <= 10, \"You should pick avaliable color\");\n        require(x < 10 && y < 10, \"You should pick cell from field\");\n        require(curGame.cells[x][y].color != color, \"This cell is already painted\");\n        require(block.timestamp - curGame.lastUpdated < TIMER, \"Last paiter already won\");\n\n        //   \n\n        uint prevPrice = curGame.price;\n        uint prevColor = curGame.cells[x][y].color;\n        address prevAddress = curGame.cells[x][y].lastUpdateBy;\n\n        // Change cell color\n        curGame.cells[x][y].color = color;\n\n        // Change users impact \n        curGame.userColors[prevAddress][prevColor]--;\n        curGame.userColors[msg.sender][color]++;\n\n        // Change colors sums\n        curGame.colorsCount[prevColor]--;\n        curGame.colorsCount[color]++;\n\n        // Change last updater\n        curGame.lastUpdateBy = msg.sender; \n\n        // Change price\n        curGame.price = (curGame.price * (100 + FACTOR)) / 100;\n\n        if (curGame.colorsCount[color] == 100) {\n            curGame.isActive = false;\n            curGame.colorWin = true;\n            emit GameFinished(gameId, color);\n        }\n\n        emit CellColored(gameId, msg.sender, 10 * x + y);\n\n        payable(msg.sender).transfer(msg.value - prevPrice);\n    }\n\n    function getWinning(uint gameId) external existingGame(gameId) finishedGame(gameId) {\n        Game storage curGame = games[gameId];\n        require(!curGame.gotWining[msg.sender], \"You already got your wining\");\n\n        if (curGame.colorWin) {\n            uint amountOfCells = curGame.userColors[msg.sender][curGame.winingColor];\n            uint wining = (amountOfCells * curGame.colorBank) / 100;\n            curGame.gotWining[msg.sender] = true; \n            // curGame.colorBank -= wining; ??\n            payable(msg.sender).transfer(wining);\n            emit GotWining(msg.sender, wining);\n        } else {\n            if (msg.sender == curGame.lastUpdateBy) {\n                uint wining = curGame.timeBank;\n                curGame.gotWining[msg.sender] = true; \n                curGame.timeBank = 0;\n                payable(msg.sender).transfer(wining);\n                emit GotWining(msg.sender, wining);\n            }\n        }\n    }\n\n    function checkTimeWin(uint gameId) existingGame(gameId) activeGame(gameId) public {\n        Game storage curGame = games[gameId];\n\n        if (block.timestamp - curGame.lastUpdated > TIMER) {\n            curGame.isActive = false; \n            curGame.colorWin = false;\n            emit GameFinished(gameId, 0);\n        }\n    }\n}",
  "sourcePath": "/home/alexandr/mipt/ethereum/LastPixel/contract/contracts/GameContract.sol",
  "compiler": {
    "name": "solc",
    "version": "0.8.10+commit.fc410830.Emscripten.clang"
  },
  "schemaVersion": "3.3.4",
  "updatedAt": "2021-11-29T06:57:39.504Z",
  "devdoc": {
    "kind": "dev",
    "methods": {},
    "version": 1
  },
  "userdoc": {
    "kind": "user",
    "methods": {},
    "version": 1
  }
}