{
  "contractName": "GameContract",
  "abi": [
    {
      "inputs": [],
      "stateMutability": "nonpayable",
      "type": "constructor"
    },
    {
      "anonymous": false,
      "inputs": [
        {
          "indexed": true,
          "internalType": "uint256",
          "name": "gameId",
          "type": "uint256"
        },
        {
          "indexed": true,
          "internalType": "address",
          "name": "adr",
          "type": "address"
        },
        {
          "indexed": false,
          "internalType": "uint256",
          "name": "coords",
          "type": "uint256"
        },
        {
          "indexed": false,
          "internalType": "uint256",
          "name": "newTime",
          "type": "uint256"
        }
      ],
      "name": "CellColored",
      "type": "event"
    },
    {
      "anonymous": false,
      "inputs": [
        {
          "indexed": false,
          "internalType": "uint256",
          "name": "gameId",
          "type": "uint256"
        },
        {
          "indexed": true,
          "internalType": "address",
          "name": "creator",
          "type": "address"
        }
      ],
      "name": "GameCreated",
      "type": "event"
    },
    {
      "anonymous": false,
      "inputs": [
        {
          "indexed": true,
          "internalType": "uint256",
          "name": "gameId",
          "type": "uint256"
        },
        {
          "indexed": false,
          "internalType": "uint256",
          "name": "winingColor",
          "type": "uint256"
        }
      ],
      "name": "GameFinished",
      "type": "event"
    },
    {
      "anonymous": false,
      "inputs": [
        {
          "indexed": true,
          "internalType": "address",
          "name": "winner",
          "type": "address"
        },
        {
          "indexed": false,
          "internalType": "uint256",
          "name": "wining",
          "type": "uint256"
        }
      ],
      "name": "GotWining",
      "type": "event"
    },
    {
      "anonymous": false,
      "inputs": [
        {
          "indexed": true,
          "internalType": "uint256",
          "name": "prevGameId",
          "type": "uint256"
        },
        {
          "indexed": true,
          "internalType": "uint256",
          "name": "newGameId",
          "type": "uint256"
        }
      ],
      "name": "ResumeGame",
      "type": "event"
    },
    {
      "inputs": [],
      "name": "createGame",
      "outputs": [],
      "stateMutability": "nonpayable",
      "type": "function"
    },
    {
      "inputs": [
        {
          "internalType": "uint256",
          "name": "gameId",
          "type": "uint256"
        }
      ],
      "name": "resumeGame",
      "outputs": [],
      "stateMutability": "nonpayable",
      "type": "function"
    },
    {
      "inputs": [
        {
          "internalType": "uint256",
          "name": "gameId",
          "type": "uint256"
        },
        {
          "internalType": "uint256",
          "name": "x",
          "type": "uint256"
        },
        {
          "internalType": "uint256",
          "name": "y",
          "type": "uint256"
        },
        {
          "internalType": "uint8",
          "name": "color",
          "type": "uint8"
        }
      ],
      "name": "pickCell",
      "outputs": [],
      "stateMutability": "payable",
      "type": "function",
      "payable": true
    },
    {
      "inputs": [
        {
          "internalType": "uint256",
          "name": "gameId",
          "type": "uint256"
        }
      ],
      "name": "getWinning",
      "outputs": [],
      "stateMutability": "nonpayable",
      "type": "function"
    },
    {
      "inputs": [
        {
          "internalType": "uint256",
          "name": "gameId",
          "type": "uint256"
        }
      ],
      "name": "checkTimeWin",
      "outputs": [],
      "stateMutability": "nonpayable",
      "type": "function"
    },
    {
      "inputs": [
        {
          "internalType": "uint256",
          "name": "gameId",
          "type": "uint256"
        }
      ],
      "name": "getGameData",
      "outputs": [
        {
          "internalType": "uint8[10][10]",
          "name": "cellsColors",
          "type": "uint8[10][10]"
        },
        {
          "internalType": "bool",
          "name": "isActive",
          "type": "bool"
        },
        {
          "internalType": "uint256",
          "name": "lastUpdated",
          "type": "uint256"
        },
        {
          "internalType": "uint256",
          "name": "colorBank",
          "type": "uint256"
        },
        {
          "internalType": "uint256",
          "name": "timeBank",
          "type": "uint256"
        },
        {
          "internalType": "uint256",
          "name": "price",
          "type": "uint256"
        }
      ],
      "stateMutability": "view",
      "type": "function",
      "constant": true
    }
  ],
  "bytecode": "0x60806040523480156200001157600080fd5b50620000226200002860201b60201c565b6200030b565b600080600154815260200190815260200160002060640160009054906101000a900460ff161562000090576040517f08c379a00000000000000000000000000000000000000000000000000000000081526004016200008790620001f9565b60405180910390fd5b60008060006001548152602001908152602001600020905060018160640160006101000a81548160ff02191690831515021790555060018160640160016101000a81548160ff0219169083151502179055504281606501819055506103e88160680181905550600160008154809291906200010b9062000254565b91905055503373ffffffffffffffffffffffffffffffffffffffff167fc3e0f84839dc888c892a013d10c8f9d6dc05a21a879d0ce468ca558013e9121c60018054620001589190620002a2565b604051620001679190620002ee565b60405180910390a250565b600082825260208201905092915050565b7f47616d6520616c72656164792063726561746564284920646f6e74206b6e6f7760008201527f207768792e2e2e29000000000000000000000000000000000000000000000000602082015250565b6000620001e160288362000172565b9150620001ee8262000183565b604082019050919050565b600060208201905081810360008301526200021481620001d2565b9050919050565b7f4e487b7100000000000000000000000000000000000000000000000000000000600052601160045260246000fd5b6000819050919050565b600062000261826200024a565b91507fffffffffffffffffffffffffffffffffffffffffffffffffffffffffffffffff8214156200029757620002966200021b565b5b600182019050919050565b6000620002af826200024a565b9150620002bc836200024a565b925082821015620002d257620002d16200021b565b5b828203905092915050565b620002e8816200024a565b82525050565b6000602082019050620003056000830184620002dd565b92915050565b611d4b806200031b6000396000f3fe6080604052600436106100555760003560e01c8063188847b01461005a5780633b39bf6e146100835780637255d729146100ac578063b6a65665146100c3578063c744040714610105578063f1f05e2a1461012e575b600080fd5b34801561006657600080fd5b50610081600480360381019061007c9190611325565b61014a565b005b34801561008f57600080fd5b506100aa60048036038101906100a59190611325565b6102e3565b005b3480156100b857600080fd5b506100c161074a565b005b3480156100cf57600080fd5b506100ea60048036038101906100e59190611325565b61088b565b6040516100fc969594939291906114d1565b60405180910390f35b34801561011157600080fd5b5061012c60048036038101906101279190611325565b6109a3565b005b61014860048036038101906101439190611564565b610b12565b005b8060008082815260200190815260200160002060640160019054906101000a900460ff16156101ae576040517f08c379a00000000000000000000000000000000000000000000000000000000081526004016101a590611628565b60405180910390fd5b600080600154815260200190815260200160002060640160009054906101000a900460ff1615610213576040517f08c379a000000000000000000000000000000000000000000000000000000000815260040161020a906116ba565b60405180910390fd5b6000806000848152602001908152602001600020905060008060006001548152602001908152602001600020905060018160640160006101000a81548160ff0219169083151502179055508160640160029054906101000a900460ff16156102875781606701548160670181905550610295565b816066015481606601819055505b600154847f672c85972d5fe44eccd1cfd2deb0fb133ef25b5f7c1acdabc1b97c4e1f589b0460405160405180910390a3600160008154809291906102d890611709565b919050555050505050565b8060008082815260200190815260200160002060640160009054906101000a900460ff16610346576040517f08c379a000000000000000000000000000000000000000000000000000000000815260040161033d9061179e565b60405180910390fd5b8160008082815260200190815260200160002060640160019054906101000a900460ff16156103aa576040517f08c379a00000000000000000000000000000000000000000000000000000000081526004016103a190611628565b60405180910390fd5b6000806000858152602001908152602001600020905080606b0160003373ffffffffffffffffffffffffffffffffffffffff1673ffffffffffffffffffffffffffffffffffffffff16815260200190815260200160002060009054906101000a900460ff161561044f576040517f08c379a00000000000000000000000000000000000000000000000000000000081526004016104469061180a565b60405180910390fd5b8060640160029054906101000a900460ff16156105e75760008160690160003373ffffffffffffffffffffffffffffffffffffffff1673ffffffffffffffffffffffffffffffffffffffff16815260200190815260200160002060008360640160039054906101000a900460ff1660ff168152602001908152602001600020549050600060648360660154836104e5919061182a565b6104ef91906118b3565b9050600183606b0160003373ffffffffffffffffffffffffffffffffffffffff1673ffffffffffffffffffffffffffffffffffffffff16815260200190815260200160002060006101000a81548160ff0219169083151502179055503373ffffffffffffffffffffffffffffffffffffffff166108fc829081150290604051600060405180830381858888f19350505050158015610591573d6000803e3d6000fd5b503373ffffffffffffffffffffffffffffffffffffffff167f44b1cd691effbfc41c7759d8b63f0b90a71427f24adce5ad5c2fb925347b89ce826040516105d891906118e4565b60405180910390a25050610744565b8060640160049054906101000a900473ffffffffffffffffffffffffffffffffffffffff1673ffffffffffffffffffffffffffffffffffffffff163373ffffffffffffffffffffffffffffffffffffffff16141561074357600081606701549050600182606b0160003373ffffffffffffffffffffffffffffffffffffffff1673ffffffffffffffffffffffffffffffffffffffff16815260200190815260200160002060006101000a81548160ff021916908315150217905550600082606701819055503373ffffffffffffffffffffffffffffffffffffffff166108fc829081150290604051600060405180830381858888f193505050501580156106f2573d6000803e3d6000fd5b503373ffffffffffffffffffffffffffffffffffffffff167f44b1cd691effbfc41c7759d8b63f0b90a71427f24adce5ad5c2fb925347b89ce8260405161073991906118e4565b60405180910390a2505b5b50505050565b600080600154815260200190815260200160002060640160009054906101000a900460ff16156107af576040517f08c379a00000000000000000000000000000000000000000000000000000000081526004016107a6906116ba565b60405180910390fd5b60008060006001548152602001908152602001600020905060018160640160006101000a81548160ff02191690831515021790555060018160640160016101000a81548160ff0219169083151502179055504281606501819055506103e881606801819055506001600081548092919061082890611709565b91905055503373ffffffffffffffffffffffffffffffffffffffff167fc3e0f84839dc888c892a013d10c8f9d6dc05a21a879d0ce468ca558013e9121c6001805461087391906118ff565b60405161088091906118e4565b60405180910390a250565b610893611299565b600080600080600080600080898152602001908152602001600020905060005b600a8110156109685760005b600a811015610954578260000182600a81106108de576108dd611933565b5b600a020181600a81106108f4576108f3611933565b5b0160000160009054906101000a900460ff168983600a811061091957610918611933565b5b602002015182600a81106109305761092f611933565b5b602002019060ff16908160ff1681525050808061094c90611709565b9150506108bf565b50808061096090611709565b9150506108b3565b508060640160019054906101000a900460ff169550806065015494508060660154935080606701549250806068015491505091939550919395565b8060008082815260200190815260200160002060640160009054906101000a900460ff16610a06576040517f08c379a00000000000000000000000000000000000000000000000000000000081526004016109fd9061179e565b60405180910390fd5b8160008082815260200190815260200160002060640160019054906101000a900460ff16610a69576040517f08c379a0000000000000000000000000000000000000000000000000000000008152600401610a60906119ae565b60405180910390fd5b600080600085815260200190815260200160002090506104b0816065015442610a9291906118ff565b1115610b0c5760008160640160016101000a81548160ff02191690831515021790555060008160640160026101000a81548160ff021916908315150217905550837f71d8d234b4f01f0a78ddc2da18d2c7e947d77e97a25d5f07608f6f75bab4f0276000604051610b039190611a13565b60405180910390a25b50505050565b8360008082815260200190815260200160002060640160009054906101000a900460ff16610b75576040517f08c379a0000000000000000000000000000000000000000000000000000000008152600401610b6c9061179e565b60405180910390fd5b8460008082815260200190815260200160002060640160019054906101000a900460ff16610bd8576040517f08c379a0000000000000000000000000000000000000000000000000000000008152600401610bcf906119ae565b60405180910390fd5b600080600088815260200190815260200160002090508060680154341015610c35576040517f08c379a0000000000000000000000000000000000000000000000000000000008152600401610c2c90611a7a565b60405180910390fd5b60008460ff16118015610c4c5750600a8460ff1611155b610c8b576040517f08c379a0000000000000000000000000000000000000000000000000000000008152600401610c8290611ae6565b60405180910390fd5b600a86108015610c9b5750600a85105b610cda576040517f08c379a0000000000000000000000000000000000000000000000000000000008152600401610cd190611b52565b60405180910390fd5b8360ff168160000187600a8110610cf457610cf3611933565b5b600a020186600a8110610d0a57610d09611933565b5b0160000160009054906101000a900460ff1660ff161415610d60576040517f08c379a0000000000000000000000000000000000000000000000000000000008152600401610d5790611bbe565b60405180910390fd5b6104b0816065015442610d7391906118ff565b10610db3576040517f08c379a0000000000000000000000000000000000000000000000000000000008152600401610daa90611c2a565b60405180910390fd5b60008160680154905060008260000188600a8110610dd457610dd3611933565b5b600a020187600a8110610dea57610de9611933565b5b0160000160009054906101000a900460ff1660ff16905060008360000189600a8110610e1957610e18611933565b5b600a020188600a8110610e2f57610e2e611933565b5b0160000160019054906101000a900473ffffffffffffffffffffffffffffffffffffffff16905086846000018a600a8110610e6d57610e6c611933565b5b600a020189600a8110610e8357610e82611933565b5b0160000160006101000a81548160ff021916908360ff16021790555060008214610f125760018460690160008373ffffffffffffffffffffffffffffffffffffffff1673ffffffffffffffffffffffffffffffffffffffff16815260200190815260200160002060008481526020019081526020016000206000828254610f0a91906118ff565b925050819055505b60018460690160003373ffffffffffffffffffffffffffffffffffffffff1673ffffffffffffffffffffffffffffffffffffffff16815260200190815260200160002060008960ff1681526020019081526020016000206000828254610f789190611c4a565b9250508190555060008214610fb557600184606a0160008481526020019081526020016000206000828254610fad91906118ff565b925050819055505b600184606a0160008960ff1681526020019081526020016000206000828254610fde9190611c4a565b92505081905550606460148560680154610ff8919061182a565b61100291906118b3565b8460660160008282546110159190611c4a565b9250508190555060646050856068015461102f919061182a565b61103991906118b3565b84606701600082825461104c9190611c4a565b92505081905550338460640160046101000a81548173ffffffffffffffffffffffffffffffffffffffff021916908373ffffffffffffffffffffffffffffffffffffffff16021790555033846000018a600a81106110ad576110ac611933565b5b600a020189600a81106110c3576110c2611933565b5b0160000160016101000a81548173ffffffffffffffffffffffffffffffffffffffff021916908373ffffffffffffffffffffffffffffffffffffffff16021790555042846065018190555060646003606461111e9190611c4a565b856068015461112d919061182a565b61113791906118b3565b8460680181905550606484606a0160008960ff1681526020019081526020016000205414156111d35760008460640160016101000a81548160ff02191690831515021790555060018460640160026101000a81548160ff021916908315150217905550897f71d8d234b4f01f0a78ddc2da18d2c7e947d77e97a25d5f07608f6f75bab4f027886040516111ca9190611cd1565b60405180910390a25b3373ffffffffffffffffffffffffffffffffffffffff168a7f0bc39044cf8f677a536cd8376c965ef4e879d2113f5470115c4fd38d656920df8a8c600a61121a919061182a565b6112249190611c4a565b42604051611233929190611cec565b60405180910390a33373ffffffffffffffffffffffffffffffffffffffff166108fc843461126191906118ff565b9081150290604051600060405180830381858888f1935050505015801561128c573d6000803e3d6000fd5b5050505050505050505050565b604051806101400160405280600a905b6112b16112c7565b8152602001906001900390816112a95790505090565b604051806101400160405280600a90602082028036833780820191505090505090565b600080fd5b6000819050919050565b611302816112ef565b811461130d57600080fd5b50565b60008135905061131f816112f9565b92915050565b60006020828403121561133b5761133a6112ea565b5b600061134984828501611310565b91505092915050565b6000600a9050919050565b600081905092915050565b6000819050919050565b6000600a9050919050565b600081905092915050565b6000819050919050565b600060ff82169050919050565b6113a881611392565b82525050565b60006113ba838361139f565b60208301905092915050565b6000602082019050919050565b6113dc81611372565b6113e6818461137d565b92506113f182611388565b8060005b8381101561142257815161140987826113ae565b9650611414836113c6565b9250506001810190506113f5565b505050505050565b600061143683836113d3565b6101408301905092915050565b6000602082019050919050565b61145981611352565b611463818461135d565b925061146e82611368565b8060005b8381101561149f578151611486878261142a565b965061149183611443565b925050600181019050611472565b505050505050565b60008115159050919050565b6114bc816114a7565b82525050565b6114cb816112ef565b82525050565b6000610d20820190506114e76000830189611450565b6114f5610c808301886114b3565b611503610ca08301876114c2565b611511610cc08301866114c2565b61151f610ce08301856114c2565b61152d610d008301846114c2565b979650505050505050565b61154181611392565b811461154c57600080fd5b50565b60008135905061155e81611538565b92915050565b6000806000806080858703121561157e5761157d6112ea565b5b600061158c87828801611310565b945050602061159d87828801611310565b93505060406115ae87828801611310565b92505060606115bf8782880161154f565b91505092959194509250565b600082825260208201905092915050565b7f47616d65206973207374696c6c20616374697665000000000000000000000000600082015250565b60006116126014836115cb565b915061161d826115dc565b602082019050919050565b6000602082019050818103600083015261164181611605565b9050919050565b7f47616d6520616c72656164792063726561746564284920646f6e74206b6e6f7760008201527f207768792e2e2e29000000000000000000000000000000000000000000000000602082015250565b60006116a46028836115cb565b91506116af82611648565b604082019050919050565b600060208201905081810360008301526116d381611697565b9050919050565b7f4e487b7100000000000000000000000000000000000000000000000000000000600052601160045260246000fd5b6000611714826112ef565b91507fffffffffffffffffffffffffffffffffffffffffffffffffffffffffffffffff821415611747576117466116da565b5b600182019050919050565b7f47616d65206973206e6f74206578697374000000000000000000000000000000600082015250565b60006117886011836115cb565b915061179382611752565b602082019050919050565b600060208201905081810360008301526117b78161177b565b9050919050565b7f596f7520616c726561647920676f7420796f75722077696e696e670000000000600082015250565b60006117f4601b836115cb565b91506117ff826117be565b602082019050919050565b60006020820190508181036000830152611823816117e7565b9050919050565b6000611835826112ef565b9150611840836112ef565b9250817fffffffffffffffffffffffffffffffffffffffffffffffffffffffffffffffff0483118215151615611879576118786116da565b5b828202905092915050565b7f4e487b7100000000000000000000000000000000000000000000000000000000600052601260045260246000fd5b60006118be826112ef565b91506118c9836112ef565b9250826118d9576118d8611884565b5b828204905092915050565b60006020820190506118f960008301846114c2565b92915050565b600061190a826112ef565b9150611915836112ef565b925082821015611928576119276116da565b5b828203905092915050565b7f4e487b7100000000000000000000000000000000000000000000000000000000600052603260045260246000fd5b7f47616d65206973206e6f74206163746976650000000000000000000000000000600082015250565b60006119986012836115cb565b91506119a382611962565b602082019050919050565b600060208201905081810360008301526119c78161198b565b9050919050565b6000819050919050565b6000819050919050565b60006119fd6119f86119f3846119ce565b6119d8565b6112ef565b9050919050565b611a0d816119e2565b82525050565b6000602082019050611a286000830184611a04565b92915050565b7f5765206e656564206d6f726520676f6c64000000000000000000000000000000600082015250565b6000611a646011836115cb565b9150611a6f82611a2e565b602082019050919050565b60006020820190508181036000830152611a9381611a57565b9050919050565b7f596f752073686f756c64207069636b206176616c6961626c6520636f6c6f7200600082015250565b6000611ad0601f836115cb565b9150611adb82611a9a565b602082019050919050565b60006020820190508181036000830152611aff81611ac3565b9050919050565b7f596f752073686f756c64207069636b2063656c6c2066726f6d206669656c6400600082015250565b6000611b3c601f836115cb565b9150611b4782611b06565b602082019050919050565b60006020820190508181036000830152611b6b81611b2f565b9050919050565b7f546869732063656c6c20697320616c7265616479207061696e74656400000000600082015250565b6000611ba8601c836115cb565b9150611bb382611b72565b602082019050919050565b60006020820190508181036000830152611bd781611b9b565b9050919050565b7f4c617374207061696e74657220616c726561647920776f6e0000000000000000600082015250565b6000611c146018836115cb565b9150611c1f82611bde565b602082019050919050565b60006020820190508181036000830152611c4381611c07565b9050919050565b6000611c55826112ef565b9150611c60836112ef565b9250827fffffffffffffffffffffffffffffffffffffffffffffffffffffffffffffffff03821115611c9557611c946116da565b5b828201905092915050565b6000611cbb611cb6611cb184611392565b6119d8565b6112ef565b9050919050565b611ccb81611ca0565b82525050565b6000602082019050611ce66000830184611cc2565b92915050565b6000604082019050611d0160008301856114c2565b611d0e60208301846114c2565b939250505056fea26469706673582212203ed9f24d0ee06cce0b3104c4f289ab867890254428c5f94d6ecb3e55c885d29264736f6c634300080a0033",
  "immutableReferences": {},
  "source": "pragma solidity ^0.8.0;\n\ncontract GameContract {\n\n    struct Cell {\n        uint8 color; \n        address lastUpdateBy;\n    }\n\n\n    // TODO   ,       memory     storage\n    struct Game {\n        Cell[10][10] cells; // Maybe mapping\n        bool isExist;\n        bool isActive; \n        bool colorWin;\n        uint8 winingColor; // ?? maybe uint better\n        address lastUpdateBy;\n        uint lastUpdated;\n        uint colorBank; \n        uint timeBank;\n        uint price;\n        mapping(address => mapping(uint => uint)) userColors;\n        mapping(uint => uint) colorsCount;\n        mapping(address => bool) gotWining; \n    }\n\n    uint constant FACTOR = 3;\n    uint constant TIMER = 20 minutes;\n    uint constant INITIAL_PRICE = 1000 wei;\n    uint constant COLOR_PART = 20;\n    uint constant TIME_PART = 80;\n\n    mapping(uint => Game) games;\n\n    uint lastGame;\n\n    event GameCreated(uint gameId, address indexed creator);\n    event CellColored(uint indexed gameId, address indexed adr, uint coords, uint newTime);\n    event GameFinished(uint indexed gameId, uint winingColor);\n    event GotWining(address indexed winner, uint wining);\n    event ResumeGame(uint indexed prevGameId, uint indexed newGameId);\n\n    modifier existingGame(uint gameId) {\n        require(games[gameId].isExist, \"Game is not exist\");\n        _;\n    }\n\n    modifier activeGame(uint gameId) {\n        require(games[gameId].isActive, \"Game is not active\");\n        _;\n    }\n\n    modifier inActiveGame(uint gameId) {\n        require(games[gameId].isActive, \"Game is not active\");\n        _;\n    }\n\n    modifier finishedGame(uint gameId) {\n        require(!games[gameId].isActive, \"Game is still active\");\n        _;\n    }\n\n    constructor() {\n        createGame();// For testing purpose. Remove on release\n    }\n\n    function createGame() public { // change to external\n        require(!games[lastGame].isExist, \"Game already created(I dont know why...)\");\n        Game storage newGame = games[lastGame];\n\n        newGame.isExist = true;\n        newGame.isActive = true;\n        newGame.lastUpdated = block.timestamp;\n        newGame.price = INITIAL_PRICE;\n        \n        lastGame++;\n\n        emit GameCreated(lastGame - 1, msg.sender);\n    }\n\n    function resumeGame(uint gameId) finishedGame(gameId) external {\n        require(!games[lastGame].isExist, \"Game already created(I dont know why...)\");\n\n        Game storage prevGame = games[gameId];\n        Game storage newGame = games[lastGame];\n\n        newGame.isExist = true;\n\n        if (prevGame.colorWin) {\n            newGame.timeBank = prevGame.timeBank;\n        } else {\n            newGame.colorBank = prevGame.colorBank;\n        }\n\n        emit ResumeGame(gameId, lastGame);\n\n        lastGame++;\n    }\n\n    function pickCell(uint gameId, uint x, uint y, uint8 color) external payable existingGame(gameId) activeGame(gameId) {\n        Game storage curGame = games[gameId];\n\n        require(msg.value >= curGame.price, \"We need more gold\");\n        require(color > 0 && color <= 10, \"You should pick avaliable color\");\n        require(x < 10 && y < 10, \"You should pick cell from field\");\n        require(curGame.cells[x][y].color != color, \"This cell is already painted\");\n        require(block.timestamp - curGame.lastUpdated < TIMER, \"Last painter already won\");\n\n        uint prevPrice = curGame.price;\n        uint prevColor = curGame.cells[x][y].color;\n        address prevAddress = curGame.cells[x][y].lastUpdateBy;\n\n        // Change cell color\n        curGame.cells[x][y].color = color;\n\n        // Change users impact\n        if (prevColor != 0) {\n            curGame.userColors[prevAddress][prevColor] -= 1;\n        }\n        curGame.userColors[msg.sender][color] += 1;\n\n        // Change colors sums\n        if (prevColor != 0) {\n            curGame.colorsCount[prevColor] -= 1;\n        }\n        curGame.colorsCount[color] += 1;\n\n        // Update banks\n        curGame.colorBank += (curGame.price * COLOR_PART) / 100;\n        curGame.timeBank += (curGame.price * TIME_PART) / 100;\n\n        // Change last updater\n        curGame.lastUpdateBy = msg.sender; \n        curGame.cells[x][y].lastUpdateBy = msg.sender;\n\n        // Change lastUpdateTime\n        curGame.lastUpdated = block.timestamp;\n\n        // Change price\n        curGame.price = (curGame.price * (100 + FACTOR)) / 100;\n\n        if (curGame.colorsCount[color] == 100) {\n            curGame.isActive = false;\n            curGame.colorWin = true;\n            emit GameFinished(gameId, color);\n        }\n\n        emit CellColored(gameId, msg.sender, 10 * x + y, block.timestamp);\n\n        payable(msg.sender).transfer(msg.value - prevPrice);\n    }\n\n    function getWinning(uint gameId) external existingGame(gameId) finishedGame(gameId) {\n        Game storage curGame = games[gameId];\n        require(!curGame.gotWining[msg.sender], \"You already got your wining\");\n\n        if (curGame.colorWin) {\n            uint amountOfCells = curGame.userColors[msg.sender][curGame.winingColor];\n            uint wining = (amountOfCells * curGame.colorBank) / 100;\n            curGame.gotWining[msg.sender] = true; \n            // curGame.colorBank -= wining; ??\n            payable(msg.sender).transfer(wining);\n            emit GotWining(msg.sender, wining);\n        } else {\n            if (msg.sender == curGame.lastUpdateBy) {\n                uint wining = curGame.timeBank;\n                curGame.gotWining[msg.sender] = true; \n                curGame.timeBank = 0;\n                payable(msg.sender).transfer(wining);\n                emit GotWining(msg.sender, wining);\n            }\n        }\n    }\n\n    function checkTimeWin(uint gameId) existingGame(gameId) activeGame(gameId) public {\n        Game storage curGame = games[gameId];\n\n        if (block.timestamp - curGame.lastUpdated > TIMER) {\n            curGame.isActive = false; \n            curGame.colorWin = false;\n            emit GameFinished(gameId, 0);\n        }\n    }\n\n    // For web3 usage\n    function getGameData(uint gameId) \n        external \n        view \n        returns (\n            uint8[10][10] memory cellsColors, \n            bool isActive, \n            uint lastUpdated,\n            uint colorBank,\n            uint timeBank,\n            uint price) {\n        Game storage curGame = games[gameId]; // temporary storage\n\n        for (uint i = 0; i < 10; i++) {\n            for (uint j = 0; j < 10; j++) {\n                cellsColors[i][j] = curGame.cells[i][j].color;\n            }\n        }\n\n        isActive = curGame.isActive;\n        lastUpdated = curGame.lastUpdated;\n        colorBank = curGame.colorBank;\n        timeBank = curGame.timeBank;\n        price = curGame.price;\n    }\n}",
  "sourcePath": "/home/alexandr/mipt/ethereum/LastPixel/contract/contracts/GameContract.sol",
  "compiler": {
    "name": "solc",
    "version": "0.8.10+commit.fc410830.Emscripten.clang"
  },
  "schemaVersion": "3.3.4",
  "updatedAt": "2021-11-30T15:23:52.120Z",
  "networkType": "ethereum",
  "devdoc": {
    "kind": "dev",
    "methods": {},
    "version": 1
  },
  "userdoc": {
    "kind": "user",
    "methods": {},
    "version": 1
  }
}